:1000000014C01BC01AC019C018C017C016C015C034
:1000100014C013C012C011C010C00FC00EC00DC05C
:100020000CC00BC00AC009C008C011241FBECFE518
:10003000D2E0DEBFCDBF0DD024C0E2CFBD9ABF9AC3
:10004000BC9A6C9A689A6E9A08958FB9779BFECF86
:1000500008958898909AA09AA89AF0DF90B3892F73
:10006000817090FF02C0A89A01C0A898EEDF8FE7C8
:1000700098E3A1E081509040A040E1F700C000006B
:06008000EDCFF894FFCF64
:00000001FF
