:1000000014C01BC01AC019C018C017C016C015C034
:1000100014C013C012C011C010C00FC00EC00DC05C
:100020000CC00BC00AC009C008C011241FBECFE518
:10003000D2E0DEBFCDBF11D028C0E2CFBD9ABF9ABB
:10004000BC9A6C9A689A6E9A0895BE9A6E9A0895B0
:100050008FB9779BFECF8FB108958898909AA09A18
:10006000A89AECDF90B3892F817090FF02C0A89A04
:1000700001C0A898EDDF8FE798E3A1E081509040A0
:0E008000A040E1F700C00000EDCFF894FFCFE4
:00000001FF
