:1000000019C133C132C131C130C12FC12EC12DC17F
:100010002CC12BC12AC129C128C127C126C125C194
:1000200024C123C122C121C120C152096AD5303661
:10003000A538BF40A39E81F3D7FB7CE339829B2F79
:10004000FF87348E4344C4DEE9CB547B9432A6C28E
:10005000233DEE4C950B42FAC34E082EA16628D9DB
:1000600024B2765BA2496D8BD12572F8F66486685E
:100070009816D4A45CCC5D65B6926C704850FDEDCA
:10008000B9DA5E154657A78D9D8490D8AB008CBC1D
:10009000D30AF7E45805B8B34506D02C1E8FCA3FE3
:1000A0000F02C1AFBD0301138A6B3A9111414F6733
:1000B000DCEA97F2CFCEF0B4E67396AC7422E7ADEB
:1000C0003585E2F937E81C75DF6E47F11A711D2995
:1000D000C5896FB7620EAA18BE1BFC563E4BC6D22E
:1000E00079209ADBC0FE78CD5AF41FDDA83388074B
:1000F000C731B11210592780EC5F60517FA919B543
:100100004A0D2DE57A9F93C99CEFA0E03B4DAE2AA6
:10011000F5B0C8EBBB3C83539961172B047EBA77CB
:10012000D626E169146355210C7D010204081020D4
:1001300040801B36637C777BF26B6FC53001672B89
:10014000FED7AB76CA82C97DFA5947F0ADD4A2AFCB
:100150009CA472C0B7FD9326363FF7CC34A5E5F1D9
:1001600071D8311504C723C31896059A071280E287
:10017000EB27B27509832C1A1B6E5AA0523BD6B3DB
:1001800029E32F8453D100ED20FCB15B6ACBBE394B
:100190004A4C58CFD0EFAAFB434D338545F9027F37
:1001A000503C9FA851A3408F929D38F5BCB6DA21F0
:1001B00010FFF3D2CD0C13EC5F974417C4A77E3D1C
:1001C000645D197360814FDC222A908846EEB81472
:1001D000DE5E0BDBE0323A0A4906245CC2D3AC6235
:1001E0009195E479E7C8376D8DD54EA96C56F4EA40
:1001F000657AAE08BA78252E1CA6B4C6E8DD741F51
:100200004BBD8B8A703EB5664803F60E613557B913
:1002100086C11D9EE1F8981169D98E949B1E87E9CD
:10022000CE5528DF8CA1890DBFE6426841992D0F7C
:10023000B054BB1611241FBECFE5D2E0DEBFCDBF48
:1002400010E0A0E6B0E0E6EEFAE002C005900D9204
:10025000A038B107D9F711E0A0E8B0E001C01D92C5
:10026000A033B107E1F712D03CC4CACE8898909A67
:10027000A09AA89ABD9ABF9ABC9A6C9A689A6E9AEC
:1002800080E690E060E870E011D40895EFDF80E749
:1002900090E060E870E021D021E030E044ED50E3F0
:1002A000809913C02115310581F0A898E0E7F0E0AE
:1002B00080818FB9779BFECF8FB1319680E0E03897
:1002C000F807B1F720E030E001C0A89ACA01019711
:1002D000F1F7E6CF4AE05CD008954AE0F5D1089501
:1002E0004CE056D008954CE0EFD108954EE050D048
:1002F00008954EE0E9D10895DF93CF9300D000D068
:10030000CDB7DEB7DC018C91898314968C9114975C
:100310008A8318968C9118978B831C968C911C97C6
:100320008C8370E0EE27FF27E61BF70BE370F0707D
:100330009E012F5F3F4FE20FF31F80818C93E5E01A
:10034000F0E0E61BF70BE370F070E20FF31F808123
:1003500014968C931497E6E0F0E0E61BF70BE3703D
:10036000F070E20FF31F808118968C9318976095B8
:10037000709563707070260F371FF90180811C968D
:100380008C930F900F900F900F90CF91DF91089565
:100390002F923F924F925F926F927F928F929F9295
:1003A000AF92BF92CF92DF92EF92FF920F931F9383
:1003B000DF93CF93CDB7DEB76B970FB6F894DEBF60
:1003C0000FBECDBF2C01798F688F142F1C01E42F35
:1003D000F0E094E0EE0FFF1F9A95E1F7E60FF71FAC
:1003E000D20120E08C91919189278D932F5F20314C
:1003F000C9F7C20101969B8B8A8B61E07DDFD20138
:100400001296BD8BAC8BCD0162E076DFF2013396A4
:10041000FF8BEE8BCF0163E06FDFD20180E0EC91C8
:10042000F0E0E65DFF4FE491ED938F5F8031B9F727
:10043000A12ECE0141969B8F8A8F92C0AA946A2DDD
:1004400070E084E0660F771F8A95E1F7A88DB98D7B
:100450006A0F7B1F40E050E021E030E02C0F3D1F91
:10046000240F351FFB01E40FF51FD201A40FB51FA8
:1004700080819C918927F90180834F5F5F4F4031D4
:10048000510551F74E010894811C911C3201D40191
:1004900013961C9113971296EC901297CE2CC126AE
:1004A00011960C911197FC90BF2DB027B98B6B2F33
:1004B0006C2589E04BE1FFD2D82E6F2D6E2584E0AC
:1004C0004BE1F9D2B82EBD24602F612784E04BE1C7
:1004D000F2D2D8266F2D612782E04BE1ECD21827AB
:1004E0001D25F301138382E06C2D4BE1E4D28E25B0
:1004F0008B25D30112968C93E02682E06E2D4BE182
:10050000DAD208270D25F301018382E069894BE1E6
:10051000D2D2F826FB24D301FC92E4E0F0E08E0E68
:100520009F1E6E0E7F1E8A8D9B8D8816990609F080
:10053000AECF8A899B8961E0DFDE8C899D8962E08C
:10054000DBDE8E899F8963E0D7DED20180E0EC910B
:10055000F0E0E65DFF4FE491ED938F5F8031B9F7F6
:1005600091E09A1508F46ACF20E030E0E88DF98D2B
:10057000E20FF31FD1018C9190818927F1018193C2
:100580001F012F5F3F4F2031310581F76B960FB66A
:10059000F894DEBF0FBECDBFCF91DF911F910F91B9
:1005A000FF90EF90DF90CF90BF90AF909F908F9093
:1005B0007F906F905F904F903F902F900895DF93C2
:1005C000CF9300D000D0CDB7DEB79C01A62FB0E00E
:1005D000EE27FF27EA1BFB0BE370F070E80FF91F13
:1005E00080818983E5E0F0E0EA1BFB0BE370F070AB
:1005F000E20FF31F80818A83E6E0F0E0EA1BFB0B49
:10060000E370F070E20FF31F80818B83A095B095AB
:10061000A370B070A20FB31F8C918C8389819A81D3
:10062000AB81BC81F90180839183A283B3830F9056
:100630000F900F900F90CF91DF910895DF93CF939C
:1006400000D000D0CDB7DEB7DC018C918983149641
:100650008C9114978A8318968C9118978B831C968B
:100660008C911C978C8370E0FB01E370F0709E010D
:100670002F5F3F4FE20FF31F80818C93FB01319678
:10068000E370F070E20FF31F808114968C9314973F
:100690006E5F7F4FFB01E370F070E20FF31F80810C
:1006A00018968C9318976F5F7F4F63707070260F4A
:1006B000371FF90180811C968C930F900F900F903B
:1006C0000F90CF91DF9108953F924F925F926F927A
:1006D0007F928F929F92AF92BF92CF92DF92EF92D2
:1006E000FF920F931F93DF93CF93CDB7DEB762973F
:1006F0000FB6F894DEBF0FBECDBF5C013B01342EB8
:100700002C01DC0120E030E0F301E20FF31F8C91BB
:10071000908189278D932F5F3F4F20313105A1F7BD
:1007200001E0CE0141969A8B898B88C0470194E005
:10073000880C991C9A95E1F7860C971C80E090E054
:10074000F501E80FF91FE081F0E0EC5CFE4FE49169
:10075000A1E0B0E0AC0FBD1FA80FB91FEC9301964C
:100760008031910569F7CE01029661E067DFCE0125
:10077000039662E063DFCE01049663E05FDF7E01F3
:100780000894E11CF11C6501D70111966C91119739
:100790008C91682713961C91139712968C911827A9
:1007A000162782E04BE187D1F701908191279827A6
:1007B000D6019C9362818181682782E04BE17BD1E5
:1007C000F701918191279827D60111969C93638117
:1007D0008281682782E04BE16ED1F70192819127F7
:1007E0009827D60112969C9360818381682782E0C6
:1007F0004BE161D1F701938119271827D601139690
:100800001C93E4E0F0E0EE0EFF1ECE0EDF1E8989A1
:100810009A89E816F90609F0B7CFD50120E030E053
:10082000F401E20FF31F8C91908189278D932F5F44
:100830003F4F20313105A1F70F5F3A94E02EFF249E
:1008400091E0931508F472CFD50180E0EC91F0E0CF
:10085000EC5CFE4FE491ED938F5F8031B9F7C501F9
:10086000019661E0EBDEC501029662E0E7DEC501BC
:10087000039663E0E3DEF70184E0EE0FFF1F8A9545
:10088000E1F7E60DF71D20E0D2018C9191918927C7
:100890008D932D012F5F2031B9F762960FB6F89432
:1008A000DEBF0FBECDBFCF91DF911F910F91FF90A3
:1008B000EF90DF90CF90BF90AF909F908F907F9000
:1008C0006F905F904F903F9008952F923F924F927C
:1008D0005F926F927F928F929F92AF92BF92CF92D0
:1008E000DF92EF92FF920F931F93DF93CF9300D08D
:1008F00000D0CDB7DEB7FC019B01F42EE52E8B01B5
:1009000055E0169507955A95E1F7902EA02EBB2439
:1009100087E090E0A80EB91E8A2C880C880C89EF1D
:100920009FEFA80EB91E43E0369527954A95E1F74B
:100930008F2D9E2DBF01A901CBD0CF2CDE2CE02E18
:10094000EE0CF02E10E02E010894411C511C3201D7
:100950000894611C711C34E0232E312C2C0E3D1E9A
:1009600081C06F2D70E0FB01E150F040EE0FFF1FE2
:10097000EE0FFF1FEC0DFD1D80819181A281B381DF
:1009800089839A83AB83BC83F01619F198E099169A
:1009900009F045C0CB0187709070049709F03FC003
:1009A000E981F0E0EC5CFE4FE491E983EA81F0E05C
:1009B000EC5CFE4FE491EA83EB81F0E0EC5CFE4FEF
:1009C000E491EB83EC81F0E0EC5CFE4FE491EC838E
:1009D00026C0F1012081F2013081F3018081E82FEE
:1009E000F0E0EC5CFE4F9491EB81F0E0EC5CFE4FAC
:1009F000E491EA83E22FF0E0EC5CFE4F84918B837C
:100A0000E32FF0E0EC5CFE4F84918C83E12FF0E06B
:100A1000E65DFE4FE4919E2799831F5F0E2D660FC2
:100A2000771F660F771F6C0D7D1DEF2DF0E0EA1923
:100A3000FB09EE0FFF1FEE0FFF1FEC0DFD1D808168
:100A40009181A281B38129813A814B815C81822786
:100A50009327A427B527FB0180839183A283B383C7
:100A6000F394E394F81408F47CCF0F900F900F9058
:100A70000F90CF91DF911F910F91FF90EF90DF903A
:100A8000CF90BF90AF909F908F907F906F905F902E
:100A90004F903F902F900895AB0160E071E015DF1B
:100AA0000895AB0160EC70E010DF0895AB0160E8E1
:100AB00070E00BDF0895782F8827769531F008F4E1
:100AC0008627660F08F46427F8CF08F48627089570
:100AD000FB01DC0102C001900D9241505040D8F75B
:060AE0000895F894FFCF19
:100AE6000123456789ABCDEF0123456789ABCDEF80
:100AF6000102030405060708090A0B0C0D0E0F0078
:00000001FF
